:020000040000FA
:04000000A5EF00F078
:100008007E82E1CF6AF0E2CF6BF0D9CF6CF0DACF25
:100018006DF0F3CF6EF0F4CF6FF0F6CF70F0F7CF4E
:1000280071F0F8CF72F0F5CF73F09EAC1EEF00F0D0
:1000380020EF00F08FEF00F09DAC25EF00F027EFE8
:1000480000F08FEF00F09E9CC350C4CF68F0696A3F
:1000580068C069F0686A68107C6E69507D6E000E31
:100068002C6E000E2D6E200E2E6E410E2F6E9A0EE7
:10007800136E990E146E4C0E156E430E166E7CC0E0
:1000880001F07DC002F0000E02BEFF0E036E046E8A
:10009800010EBBEC08F001C00FF002C010F003C065
:1000A80011F004C012F07FEC05F00FC028F010C06A
:1000B80029F011C02AF012C02BF06AEC03F028C016
:1000C80041F029C042F02AC043F02BC044F0E4ECD0
:1000D8000BF041C07AF042C07BF0A80E586E000EBB
:1000E800596E7D0E5A6E020E5B6E7AC05CF07BC054
:1000F8005DF0EBEC0DF0A80E336E000E346E000EC2
:10010800356E000E366E000E386E000E376EDFEC60
:100118000EF03350836E73C0F5FF72C0F8FF71C0E4
:10012800F7FF70C0F6FF6FC0F4FF6EC0F3FF6DC03D
:10013800DAFF6CC0D9FF6BC0E2FF6AC0E1FF7E92B4
:060148001100F8EF0EF0BB
:100200000000000000DCCFD1350000000000C01568
:100210003F6042A20D70A5EC363BAAB83F4F38763E
:100220003F3CAA38338CBEBF350072313F18723163
:100230003F4CBB31330EEADDB555B38A38610B361E
:10024000BBABAA2A3E42F1533E55326C3E05A38B0E
:100250003EABAAAA3EB76DDB3E9A99193F6042A217
:100260000DCAF249710000804B0000803F0000C0C1
:100270003F00AAB83FC623F6B80040763F30782545
:0302800064000017
:10028400000E2C6E000E2D6E000E2E6E000E2F6EC4
:100294000FC030F010C031F030503110D8B455EFE9
:1002A40001F057EF01F044EF03F030C0D9FF31C043
:1002B400DAFFDF50D8A461EF01F063EF01F065EFDE
:1002C40001F044EF03F030C0D9FF31C0DAFFDF5052
:1002D400326E75EF01F0304A312A30C0D9FF31C097
:1002E400DAFFDF50326E010E246E200E3218D8B4BD
:1002F4007EEF01F080EF01F098EF01F0F70E166E3B
:10030400FF0E176E3250186E196A165018261750C1
:100314001922195009E1050E185CD8A094EF01F0D8
:1003240096EF01F098EF01F0000E246E24C01EF049
:100334001F6A1E501F10D8A4A2EF01F0A4EF01F011
:100344006DEF01F0000E2A6E000E256E000E2B6E6E
:100354002D0E3218D8A4B1EF01F0B3EF01F0BFEFC6
:1003640001F0010E2A6E304A312A30C0D9FF31C063
:10037400DAFFDF50326ECAEF01F02B0E3218D8A428
:10038400C6EF01F0C8EF01F0CAEF01F0B5EF01F0DC
:10039400300E3218D8A4D1EF01F0D3EF01F01DEFE5
:1003A40002F0304A312A30C0D9FF31C0DAFFDF50C1
:1003B400326E13501410D8B4E2EF01F0E4EF01F000
:1003C400EEEF01F0100E13181410D8A4ECEF01F0A6
:1003D400EEEF01F00EEF02F0780E3218D8B4F5EF1C
:1003E40001F0F7EF01F000EF02F0580E3218D8A434
:1003F400FEEF01F000EF02F00EEF02F0000E146EBB
:10040400100E136E304A312A30C0D9FF31C0DAFFE2
:10041400DF50326E1DEF02F0010E256E13501410E2
:10042400D8A417EF02F019EF02F01DEF02F0000E4E
:10043400146E080E136E13501410D8A424EF02F097
:1004440026EF02F02AEF02F0000E146E0A0E136E6D
:100454001550D8B430EF02F032EF02F04EEF02F054
:100464002A50D8A438EF02F03AEF02F044EF02F039
:10047400FF0E266EFF0E276EFF0E286E7F0E296E6E
:1004840052EF02F0000E266E000E276E000E286E4C
:10049400800E296E52EF02F02668276828682968C2
:1004A4002CC01AF02DC01BF02EC01CF02FC01DF064
:1004B4009F0E166EFF0E176E3250186E196A200EBC
:1004C4001812000E19121650182617501922195016
:1004D4000AE11A0E185CD8A072EF02F075EF02F070
:1004E400010E76EF02F0000E206E216A20502110DA
:1004F400D8B47FEF02F081EF02F08BEF02F032C04C
:1005040007F0086A93EC0DF00750C90F326EB0EF94
:1005140002F0D00E166EFF0E176E3250186E196A66
:10052400165018261750192219500AE10A0E185CA1
:10053400D8A09FEF02F0A2EF02F0010EA3EF02F0A9
:10054400000E226E236A22502310D8B4ACEF02F0BE
:10055400AEEF02F02CEF03F0300E325E3250166E26
:10056400176A1350165C1750800A186E1450800ACC
:100574001858D8A0C0EF02F0C2EF02F0C4EF02F0A6
:100584002CEF03F02B50D8A4CAEF02F0CCEF02F00A
:1005940020EF03F013C001F014C002F0000E02BEFD
:1005A400FF0E036E046E2CC005F02DC006F02EC0A5
:1005B40007F02FC008F02DEC0DF0325001242C6E02
:1005C400000E02202D6E000E03202E6E000E04205D
:1005D4002F6E1A502C5C1B502D581C502E581D5039
:1005E4002F58D8A0F8EF02F0FAEF02F011EF03F061
:1005F4001550D8B400EF03F002EF03F020EF03F03E
:100604002C50265C2D5027582E5028582F502958EE
:10061400D8B00FEF03F011EF03F020EF03F026C082
:100624002CF027C02DF028C02EF029C02FF0000E8A
:100634000001856F220E846F010E2B6E304A312A21
:1006440030C0D9FF31C0DAFFDF50326E010E256EA3
:1006540052EF02F02B50D8A432EF03F034EF03F042
:1006640044EF03F02A50D8B43AEF03F03CEF03F020
:1006740044EF03F02F1E2E1E2D1E2C6C000E2D2277
:100684002E222F2211501210D8B44BEF03F04DEF4D
:1006940003F061EF03F02550D8A453EF03F055EFB6
:1006A40003F059EF03F00FC030F010C031F011C067
:1006B400D9FF12C0DAFF30C0DEFF31C0DDFF2CC02D
:1006C4000FF02DC010F02EC011F02FC012F0120048
:1006D4002B50800B346E2B502B243A6E2AAE75EFC0
:1006E40003F077EF03F078EF03F03A803A50D8B490
:1006F4007EEF03F080EF03F093EF03F03A28D8A4E1
:1007040086EF03F088EF03F090EF03F0000E286EFD
:10071400000E296E000E2A6E000E2B6E2A8E9BEFA1
:1007240003F0000E286E000E296E000E2A6E000ED5
:100734002B6E2F50800B341A2F502F24396E2EAE6F
:10074400A6EF03F0A8EF03F0A9EF03F039803950C6
:10075400D8B4AFEF03F0B1EF03F0C4EF03F03928DE
:10076400D8A4B7EF03F0B9EF03F0C1EF03F0000E24
:100774002C6E000E2D6E000E2E6E000E2F6E2E8E21
:10078400CCEF03F0000E2C6E000E2D6E000E2E6EBC
:10079400000E2F6E3950D8B4D2EF03F0D4EF03F02B
:1007A400DCEF03F03A50D8A4DAEF03F0DCEF03F007
:1007B400E6EF03F0000E286E000E296E000E2A6E7E
:1007C400000E2B6E7EEF05F02E502802F3CF3FF083
:1007D400F4CF40F03F50356E366A376A386A40507D
:1007E4003B6E3C6A3D6A3E6A2D502902F3CF3FF0CE
:1007F400F4CF40F03F503526000E362237223822FF
:1008040040503B26000E3C223D223E222C502A0220
:10081400F3CF3FF0F4CF40F03F503526000E3622A0
:100824003722382240503B26000E3C223D223E22F5
:1008340037C038F036C037F035C036F0356A2C5042
:100844002902F3CF3FF0F4CF40F03F50352640501B
:100854003622000E3722000E38222D502802F3CF04
:100864003FF0F4CF40F03F50352640503622000E82
:100874003722000E382237C038F036C037F035C082
:1008840036F0356A2C502802F3CF3FF0F4CF40F015
:100894003F50352640503622000E3722000E3822B3
:1008A4002E502902F3CF3FF0F4CF40F03F503B26C7
:1008B40040503C22000E3D22000E3E222D502A02C2
:1008C400F3CF3FF0F4CF40F03F503B2640503C2262
:1008D400000E3D22000E3E222E502A02F3CF3FF09E
:1008E400F4CF40F03F50306E4050316E326A336A7C
:1008F40032C033F031C032F030C031F0306A3050A1
:100904003B2631503C2232503D2233503E2235C0EA
:1009140030F036C031F037C032F038C033F0190E41
:1009240099EF04F0D8903332323231323032E82E3B
:1009340094EF04F030503B2631503C2232503D229B
:1009440033503E2237C038F036C037F035C036F069
:10095400356A39503AC030F0316A3026000E3122FF
:10096400820E30243F6EFF0E3120406ECFEF04F034
:10097400D8903B363C363D363E3638AEC4EF04F0B4
:10098400C6EF04F0C7EF04F03B80D8903536363616
:10099400373638363F06D8A040063DAED4EF04F0D3
:1009A400D6EF04F0BAEF04F0000E396E38AEDDEF86
:1009B40004F0DFEF04F003EF05F0FF0E3514306EA2
:1009C400FF0E3614316EFF0E3714326E7F0E38145C
:1009D400336E3050311032103310D8B4F4EF04F0C9
:1009E400F6EF04F0FAEF04F0010E396E03EF05F0B0
:1009F4003BA0FFEF04F001EF05F003EF05F0F6EF85
:100A040004F03950D8B409EF05F00BEF05F02FEFDF
:100A140005F0010E3B26000E3C223D223E223EA064
:100A240016EF05F018EF05F02FEF05F03BC030F09E
:100A34003CC031F03DC032F03EC033F03334333289
:100A440032323132303230C03BF031C03CF032C04F
:100A54003DF033C03EF03F4A402A40BE3AEF05F035
:100A6400405008E13F28D8A03AEF05F03CEF05F0EC
:100A740046EF05F0000E3B6E000E3C6E800E3D6EA0
:100A84007F0E3E6E74EF05F040BE53EF05F040500C
:100A940006E13F04D8B051EF05F053EF05F05FEFE6
:100AA40005F0000E3B6E000E3C6E000E3D6E000E17
:100AB4003E6E000E346E74EF05F03FC03AF0FF0E48
:100AC4003B16FF0E3C167F0E3D16000E3E163AA056
:100AD4006EEF05F070EF05F071EF05F03D8ED890E4
:100AE4003A303E6E34503E123BC028F03CC029F0F0
:100AF4003DC02AF03EC02BF012001250800B1F6E36
:100B040012501224266E11AE8AEF05F08CEF05F018
:100B14008DEF05F026802650D8B493EF05F095EFBD
:100B240005F0AAEF05F02628D8A49BEF05F09DEF69
:100B340005F0A5EF05F0000E0F6E000E106E000E0E
:100B4400116E000E126E118E000E126EB2EF05F0D1
:100B5400000E0F6E000E106E000E116E000E126E5F
:100B64001650800B1F1A16501624276E15AEBDEFB3
:100B740005F0BFEF05F0C0EF05F027802750D8B48B
:100B8400C6EF05F0C8EF05F0DDEF05F02728D8A47F
:100B9400CEEF05F0D0EF05F0D8EF05F0000E136EA0
:100BA400000E146E000E156E000E166E158E000EDD
:100BB400166EE5EF05F0000E136E000E146E000EB7
:100BC400156E000E166E1350141015101610D8A4BE
:100BD400EEEF05F0F0EF05F008EF06F0000E0F6EF3
:100BE400000E106E000E116E000E126E800E1112A9
:100BF4007F0E12121F5012120FC00FF010C010F00F
:100C040011C011F012C012F04BEF07F02650D8A417
:100C14000EEF06F010EF06F01AEF06F0000E0F6E5E
:100C2400000E106E000E116E000E126E4BEF07F0E8
:100C3400275026C017F0186A175E000E185A7F0E48
:100C44001724206E000E1820216E0FC01BF010C058
:100C54001CF011C01DF012C01EF0000E0F6E000E2D
:100C6400106E000E116E000E126E000E226E000E3B
:100C7400236E000E246E000E256E000E276E7BEF91
:100C840006F02750D8B449EF06F04BEF06F062EFB8
:100C940006F0D8901B361C361D361E36D8900F36FB
:100CA40010361136123625AE5AEF06F05CEF06F018
:100CB4005DEF06F00F80D890223623362436253691
:100CC40013501B5C14501C5815501D5816501E58B8
:100CD400D8A06FEF06F071EF06F07AEF06F0258CDE
:100CE40013501B5E14501C5A15501D5A16501E5A90
:100CF400272A190E276481EF06F083EF06F043EFED
:100D040006F01B501C101D101E10D8B48CEF06F0FA
:100D14008EEF06F0A6EF06F02280A6EF06F0D8903C
:100D24000F3610361136123625AE9BEF06F09DEFC6
:100D340006F09EEF06F00F80D89022362336243634
:100D440025362006D8A0210611AEABEF06F0ADEF94
:100D540006F091EF06F0000E276E25AEB4EF06F014
:100D6400B6EF06F0DAEF06F0FF0E2214176EFF0E50
:100D74002314186EFF0E2414196E7F0E25141A6E98
:100D84001750181019101A10D8B4CBEF06F0CDEF85
:100D940006F0D1EF06F0010E276EDAEF06F00FA091
:100DA400D6EF06F0D8EF06F0DAEF06F0CDEF06F056
:100DB4002750D8B4E0EF06F0E2EF06F006EF07F0B4
:100DC400010E0F26000E10221122122212A0EDEFA6
:100DD40006F0EFEF06F006EF07F00FC017F010C0B3
:100DE40018F011C019F012C01AF01A341A3219325C
:100DF4001832173217C00FF018C010F019C011F0D4
:100E04001AC012F0204A212A21BE11EF07F0215006
:100E140008E12028D8A011EF07F013EF07F01EEF28
:100E240007F0000E216E2068000E0F6E000E106E8B
:100E3400000E116E000E126E21BE2BEF07F0215032
:100E440006E12004D8B029EF07F02BEF07F039EFC3
:100E540007F0000E216E000E206E000E0F6E000EC5
:100E6400106E000E116E000E126E000E1F6E20C06A
:100E740026F026A040EF07F042EF07F045EF07F019
:100E8400118E46EF07F0119ED8902630126EFCEFBB
:100E940005F012001EC036F01FC037F020C038F035
:100EA40021C039F022C03AF023C03BF024C03CF00A
:100EB40025C03DF03DBE61EF07F064EF07F0010E81
:100EC40065EF07F0000E346E356A34503510D8B42F
:100ED4006EEF07F070EF07F080EF07F03D1E3C1E49
:100EE4003B1E3A1E391E381E371E366C000E372242
:100EF400382239223A223B223C223D2277BE85EF1A
:100F040007F087EF07F088EF07F0789277BE95EF48
:100F140007F0775006E17604D8B093EF07F095EF29
:100F240007F09BEF07F0000E316E010E306E9FEF5D
:100F340007F076C030F077C031F074C032F075C07D
:100F440033F034503510D8A4AAEF07F0ACEF07F013
:100F5400B3EF07F078A4B1EF07F0B3EF07F0B6EF03
:100F640007F03206D8A03306000E3F6E1F0E3E6E09
:100F7400000E0001A76F3BEF08F03E06D8A03F0625
:100F8400880E3E24D96E000E3F20DA6E36C001F082
:100F940037C002F038C003F039C004F03AC005F09D
:100FA4003BC006F03CC007F03DC008F00A0E096ED5
:100FB400000E0A6E000E0B6E000E0C6E000E0D6E0F
:100FC400000E0E6E000E0F6E000E106E32EC0BF063
:100FD40001C026F002C027F003C028F004C029F0A5
:100FE40005C02AF006C02BF007C02CF008C02DF075
:100FF40026C013F028C014F034EC0EF01350300F58
:10100400DF6E3006D8A031063206D8A0330636C0CB
:1010140001F037C002F038C003F039C004F03AC020
:1010240005F03BC006F03CC007F03DC008F00A0ED6
:10103400096E000E0A6E000E0B6E000E0C6E000E92
:101044000D6E000E0E6E000E0F6E000E106E6EEC26
:101054000AF001C036F002C037F003C038F004C013
:1010640039F005C03AF006C03BF007C03CF008C0B8
:101074003DF03FBE46EF08F03F5008E13E04D8A0E3
:1010840046EF08F048EF08F078EF08F036503710D4
:10109400381039103A103B103C103D10D8A455EFCD
:1010A40008F057EF08F0BFEF07F031BE64EF08F027
:1010B400315006E13004D8B062EF08F064EF08F074
:1010C400BFEF07F033BE6FEF08F0335008E132048E
:1010D400D8A06FEF08F071EF08F078EF08F078B25D
:1010E40076EF08F078EF08F0BFEF07F034503510D2
:1010F400D8A47FEF08F081EF08F088EF08F078A417
:1011040086EF08F088EF08F0A6EF08F03E06D8A0B6
:101114003F0634503510D8A492EF08F094EF08F04D
:101124009AEF08F0000E2F6E2B0E2E6E9EEF08F035
:10113400000E2F6E2D0E2E6E880E3E24D96E000EDC
:101144003F20DA6E2EC0DFFF1CC011F01DC012F06C
:10115400880E3E24136E000E3F20146E32C015F02C
:1011640033C016F0CCEC0CF011C01CF012C01DF012
:101174001200096E0950D8B4C2EF08F0C4EF08F0A9
:10118400E6EF08F004BECBEF08F0C9EF08F0E6EF95
:1011940008F001C005F002C006F003C007F004C067
:1011A40008F0051E061E071E081E052A000E06224C
:1011B4000722082205C00BF006C00CF007C00DF092
:1011C40008C00EF0EEEF08F001C00BF002C00CF006
:1011D40003C00DF004C00EF00150021003100410FF
:1011E400D8A4F7EF08F0F9EF08F003EF09F0000EC8
:1011F400016E000E026E000E036E000E046E94EF7C
:1012040009F0960E0A6E0DEF09F00A2AD8900E32F4
:101214000D320C320B32000E0B14056E000E0C1442
:10122400066E000E0D14076EFE0E0E14086E0550A9
:10123400061007100810D8A422EF09F024EF09F0D3
:1012440007EF09F032EF09F00A2A010E0B26000E0F
:101254000C220D220E22D8900E320D320C320B329B
:10126400000E0B14056E000E0C14066E000E0D1409
:10127400076EFF0E0E14086E0550061007100810B6
:10128400D8A447EF09F049EF09F026EF09F051EF30
:1012940009F00A06D8900B360C360D360E360DBE04
:1012A40056EF09F058EF09F060EF09F0020E0A60FA
:1012B4005EEF09F060EF09F04BEF09F00AB065EF5B
:1012C40009F067EF09F068EF09F00D9ED8900A3233
:1012D4000AC005F0066A076A086A05C008F0076ACA
:1012E400066A056A05500B1206500C1207500D12BF
:1012F40008500E120950D8B482EF09F084EF09F0B7
:101304008CEF09F004BE8BEF09F089EF09F08CEF44
:1013140009F00E8E0BC001F00CC002F00DC003F0FA
:101324000EC004F0120042C0D9FF43C0DAFFDECF82
:10133400F6FFDDCFF7FF0800F550250AD8A4A5EF86
:1013440009F0A7EF09F052EF0AF042C0D9FF43C0F9
:10135400DAFFDE2A000EDD22000E756E000E746EBA
:1013640074C078F075C079F07668776842C0D9FFA8
:1013740043C0DAFFDECFF6FFDDCFF7FF0800F550FC
:10138400640AD8B4C8EF09F0CAEF09F0DCEF09F039
:1013940042C0D9FF43C0DAFFDECFF6FFDDCFF7FF4F
:1013A4000800F550690AD8A4DAEF09F0DCEF09F077
:1013B4001CEF0AF042C0D9FF43C0DAFFDE2A000E58
:1013C400DD2244C0D9FF45C0DAFFDFCF46F0020E6C
:1013D400DE26DFCF47F0000EDD2246C0D9FF47C02E
:1013E400DAFFDECF48F0DDCF49F0000E49BEFF0E34
:1013F4004A6E4B6E4C6E4D6E4E6E4F6E40C01CF07E
:1014040041C01DF048C01EF049C01FF04AC020F082
:101414004BC021F04CC022F04DC023F04EC024F04C
:101424004FC025F04CEC07F01CC040F01DC041F04B
:101434006DEF0AF042C0D9FF43C0DAFFDECFF6FFFA
:10144400DDCFF7FF0800F550250AD8A42CEF0AF0E9
:101454002EEF0AF045EF0AF042C0D9FF43C0DAFF8D
:10146400DE2A000EDD22000E026E250E016E40C043
:1014740003F041C004F067EC0CF0000E416E010E65
:10148400406E6DEF0AF042C0D9FF43C0DAFFDE2A96
:10149400000EDD22000E416E000E406E6DEF0AF06C
:1014A40042C0D9FF43C0DAFFDECFF6FFDDCFF7FF3E
:1014B4000800F550016E026A40C003F041C004F018
:1014C40067EC0CF042C0D9FF43C0DAFFDE2A000EFD
:1014D400DD223FEF0AF01200000E126E10BE77EF0D
:1014E4000AF075EF0AF089EF0AF0101E0F1E0E1EA7
:1014F4000D1E0C1E0B1E0A1E096C000E0A220B2266
:101504000C220D220E220F221022010E126E08BE92
:1015140090EF0AF08EEF0AF0A2EF0AF0081E071E01
:10152400061E051E041E031E021E016C000E02226E
:10153400032204220522062207220822010E121A7F
:1015440020EE13F0070EDE6AE806FDE209500A10E9
:101554000B100C100D100E100F101010D8B4B5EFA6
:101564000AF0B7EF0AF009EF0BF0010E116EC5EFA8
:101574000AF0D89009360A360B360C360D360E367C
:101584000F361036112A10AECAEF0AF0CCEF0AF06B
:10159400BBEF0AF0D89013361436153616361736C4
:1015A400183619361A360950015C0A5002580B5085
:1015B40003580C5004580D5005580E5006580F503F
:1015C400075810500858D8A0EAEF0AF0ECEF0AF0D8
:1015D400FDEF0AF00950015E0A50025A0B50035AFB
:1015E4000C50045A0D50055A0E50065A0F50075A03
:1015F4001050085A1380D89010320F320E320D3228
:101604000C320B320A320932112ECCEF0AF012508E
:10161400D8B40FEF0BF011EF0BF021EF0BF01A1E03
:10162400191E181E171E161E151E141E136C000EEE
:101634001422152216221722182219221A2213C044
:1016440001F014C002F015C003F016C004F017C076
:1016540005F018C006F019C007F01AC008F012000F
:10166400000E126E08BE3BEF0BF039EF0BF04DEF9E
:101674000BF0081E071E061E051E041E031E021E76
:10168400016C000E022203220422052206220722F4
:101694000822010E126E10BE54EF0BF052EF0BF045
:1016A40064EF0BF0101E0F1E0E1E0D1E0C1E0B1EE3
:1016B4000A1E096C000E0A220B220C220D220E2295
:1016C4000F22102209500A100B100C100D100E10CE
:1016D4000F101010D8B471EF0BF073EF0BF0BBEFD9
:1016E4000BF0010E116E81EF0BF0D89009360A361B
:1016F4000B360C360D360E360F361036112A10AE58
:1017040086EF0BF088EF0BF077EF0BF00950015CDC
:101714000A5002580B5003580C5004580D500558E9
:101724000E5006580F50075810500858D8A09DEF77
:101734000BF09FEF0BF0AFEF0BF00950015E0A5076
:10174400025A0B50035A0C50045A0D50055A0E50AD
:10175400065A0F50075A1050085AD89010320F32B8
:101764000E320D320C320B320A320932112E88EF4E
:101774000BF01250D8B4C1EF0BF0C3EF0BF0D3EF62
:101784000BF0081E071E061E051E041E031E021E65
:10179400016C000E022203220422052206220722E3
:1017A400082201C001F002C002F003C003F004C02B
:1017B40004F005C005F006C006F007C007F008C035
:1017C40008F01200433444344A6E4A50D8A4EDEF72
:1017D4000BF0EFEF0BF0F9EF0BF0000E416E000E83
:1017E400426E000E436E000E446E66EF0CF041C074
:1017F40045F042C046F043C047F044C048F0200ED4
:1018040009EF0CF0D8904832473246324532E82E80
:1018140004EF0CF04550496E438EFF0E4116FF0E47
:101824004216FF0E4316000E4416960E4A5E4ABE3A
:1018340020EF0CF01EEF0CF036EF0CF04A50800A4B
:10184400970FD8B028EF0CF02AEF0CF02CEF0CF027
:10185400EFEF0BF0D89044324332423241324A3EE9
:101864002CEF0CF04EEF0CF01F0E4A643CEF0CF022
:101874003EEF0CF046EF0CF0EFEF0BF0D890413652
:101884004236433644364A064A50D8A44CEF0CF04C
:101894004EEF0CF040EF0CF04950D8B454EF0CF07C
:1018A40056EF0CF05EEF0CF0441E431E421E416CDA
:1018B400000E42224322442241C041F042C042F081
:1018C40043C043F044C044F0120003500410D8B4A1
:1018D4006EEF0CF070EF0CF079EF0CF00350041085
:1018E400D8A477EF0CF079EF0CF07EEF0CF00150F8
:1018F4000DEC0FF0CBEF0CF020EE04F00350D926E2
:101904000450DA22DE50DE10D8B48BEF0CF08DEFE9
:101914000CF0A8EF0CF020EE04F00350D92604508C
:10192400DA2210EE02F00350E1260450E222DE50E7
:10193400E65CE650800A096EDE50800A0958D8B089
:10194400A6EF0CF0A8EF0CF0CBEF0CF020EE02F0B9
:101954000350D9260450DA22DECF05F0DDCF06F09D
:1019640003C0D9FF04C0DAFFDECF07F0DDCF08F0F3
:1019740005500724D96E06500820DA6E01C0DFFF37
:1019840020EE02F00350D9260450DA22DE2A000E9B
:10199400DD22120078A0D1EF0CF0D3EF0CF0DDEFD4
:1019A4000CF013C00AF014C00BF011C00CF012C0FC
:1019B4000DF012EC0EF016BEE2EF0CF0E4EF0CF0BA
:1019C400EAEF0CF015C01AF016C01BF0EEEF0CF0A5
:1019D400000E1B6E000E1A6E000E196E000E186EAD
:1019E40000EF0DF0000E026E200E016E11C003F028
:1019F40012C004F067EC0CF0184A192A1A50185C4B
:101A04001950800A176E1B50800A1758D8A00DEF82
:101A14000DF00FEF0DF0F4EF0CF078B014EF0DF0C3
:101A240016EF0DF020EF0DF013C00AF014C00BF008
:101A340011C00CF012C00DF012EC0EF013C001F046
:101A440014C002F0AAEC0EF01A500124116E1B50BF
:101A54000220126E1200000E096E000E0A6E000EB5
:101A64000B6E000E0C6E01A03AEF0DF03CEF0DF082
:101A740044EF0DF00550092606500A2207500B22A8
:101A840008500C22D8900536063607360836D8900A
:101A940004320332023201320150021003100410E6
:101AA400D8A457EF0DF059EF0DF035EF0DF009C044
:101AB40001F00AC002F00BC003F00CC004F01200E5
:101AC40052C056F053C057F0000E0001876F000E4D
:101AD400866F80EF0DF050C040F051C041F0560EBB
:101AE400426E000E436E54C044F055C045F095EC70
:101AF40009F04050000186274150872356C0F6FF65
:101B040057C0F7FF0800F5500009D8A48CEF0DF07A
:101B14008EEF0DF06DEF0DF086C050F087C051F0E0
:101B240012009F0E096EFF0E0A6E07C00BF008C06C
:101B34000CF009500B260A500C220C500AE11A0E24
:101B44000B5CD8A0A8EF0DF0ABEF0DF0010EACEFDD
:101B54000DF0000E0D6E0E6A0D500E10D8B4B5EFD8
:101B64000DF0B7EF0DF0BDEF0DF05F0E0714076E2B
:101B7400086AC1EF0DF007C007F008C008F01200B2
:101B8400010E076E200E01180210D8B4CCEF0DF030
:101B9400CEEF0DF0E7EF0DF0F70E036EFF0E046EBF
:101BA40001C005F002C006F00350052604500622C9
:101BB400065009E1050E055CD8A0E3EF0DF0E5EF52
:101BC4000DF0E7EF0DF0000E076E07C001F0026A9A
:101BD40012005C0E606E000E616E58C062F059C057
:101BE40063F0000E656E000E646E000E676E000EEC
:101BF400666E620E506E000E516E5AC052F05BC09B
:101C040053F0600E546E000E556E62EC0DF064508D
:101C14005824D96E65505920DA6E000EDF6E12001A
:101C2400000E106E000E0F6E23EF0EF00EC001F0CA
:101C3400026A0CC003F00DC004F067EC0CF00F4A0C
:101C4400102A0F500A24D96E10500B20DA6EDF5080
:101C54000E6E0E50D8A431EF0EF033EF0EF018EFE5
:101C64000EF0120014BE41EF0EF0145006E11304FE
:101C7400D8B03FEF0EF041EF0EF04FEF0EF013C06F
:101C840015F014C016F0151E161E154A162A15C096
:101C940013F016C014F053EF0EF013C013F014C079
:101CA40014F012009F0E036EFF0E046E200E01103E
:101CB400056E000E0210066E03500526045006221F
:101CC40006500AE11A0E055CD8A06BEF0EF06EEF19
:101CD4000EF0010E6FEF0EF0000E016E026A12009C
:101CE4009F0E036EFF0E046E01C005F002C006F0E5
:101CF400035005260450062206500AE11A0E055C1C
:101D0400D8A087EF0EF08AEF0EF0010E8BEF0EF0E5
:101D1400000E016E026A1200D00E036EFF0E046EF6
:101D240001C005F002C006F0035005260450062247
:101D340006500AE10A0E055CD8A0A3EF0EF0A6EF48
:101D44000EF0010EA7EF0EF0000E016E026A1200F3
:101D540001C003F002C004F0B2EF0EF0014A022AFF
:101D640001C0D9FF02C0DAFFDF50D8A4BCEF0EF0E7
:101D7400BEEF0EF0B0EF0EF00350015C016E0450A4
:101D84000258026E1200000E956E0E0EC16E928005
:101D9400F80EC016C050C70B0809C06EC08EC30E23
:101DA400C216C2809E9C9D8C9F8CD09EF28CF28E1B
:101DB400C282DAEF0EF0A5EF00F033C00FF034C0AA
:101DC40010F035C011F036C012F037C013F038C02F
:101DD40014F0010E156E42EC01F00FC033F010C088
:101DE40034F011C035F012C036F0120000EE80F06D
:101DF400320EEE6AE806FDE100EE74F00A0EEE6AB9
:101E0400E806FDE17E907E92000EF86E020EF76EFB
:081E14000001C5EF0EF0120001
:020000040020DA
:08000000FFFFFFFFFFFFFFFF00
:020000040030CA
:0E000000FF08191EFF8384FF03C003E00340C6
:00000001FF
