:020000040000FA
:04000000B9EF00F064
:060008006B8253EF06F0CD
:100018006B80D8CF12F0E8CF13F0E0CF14F09EAC8D
:1000280018EF00F01AEF00F05CEF00F09DAC1FEF46
:1000380000F021EF00F05CEF00F09E9CC230E83247
:100048000F0B050AD8A42BEF00F02DEF00F03EEFC0
:1000580000F0C350C4CF10F0116A10C011F0106A3C
:100068001010626E1150636EC250C30B1809C26E35
:100078005CEF00F0C230E8320F0B060AD8A447EF55
:1000880000F049EF00F05CEF00F0C350C4CF10F06F
:10009800116A10C011F0106A1010606E1150616E74
:1000A800C250C30B1409C26E60C05CF061C05DF041
:1000B800F2AA61EF00F063EF00F0B1EF00F0F2A4F4
:1000C80068EF00F06AEF00F0B1EF00F0F294FB0E79
:1000D800D76E1F0ED66E5AC010F05BC011F01134E7
:1000E800113210321134113210321050BB6E5AC016
:1000F80010F0030E1016103ABA501018CF0B101843
:10010800BA6E5E4A5F2A62505A5C5B50800A106E73
:100118006350800A1058D8A094EF00F096EF00F0D2
:100128009AEF00F0000E5B6E000E5A6E5C505E5C3B
:100138005F50800A106E5D50800A1058D8A0A7EF53
:1001480000F0A9EF00F0B1EF00F0000E5F6E000EB6
:100158005E6E000E5B6E000E5A6E14C0E0FF13C098
:0E016800E8FF12C0D8FF6B9010001CEF08F0EB
:100200000020202053544F50504544212121004DBF
:1002100061782053706565643A200044656C6179AB
:070220003A200025640000F4
:1002280032C04AF033C04BF034C04CF035C04DF00A
:1002380036C04EF037C04FF038C050F039C051F0DA
:1002480051BE29EF01F02CEF01F0010E2DEF01F066
:10025800000E486E496A48504910D8B436EF01F08C
:1002680038EF01F048EF01F0511E501E4F1E4E1E90
:100278004D1E4C1E4B1E4A6C000E4B224C224D222A
:100288004E224F225022512257BE4DEF01F04FEF20
:1002980001F050EF01F0589257BE5DEF01F0575052
:1002A80006E15604D8B05BEF01F05DEF01F063EFB3
:1002B80001F0000E456E010E446E67EF01F056C066
:1002C80044F057C045F0AEC046F0AFC047F04850C4
:1002D8004910D8A472EF01F074EF01F07BEF01F040
:1002E80058A479EF01F07BEF01F07EEF01F04606AC
:1002F800D8A04706000E536E1F0E526E000E010165
:100308006F6F03EF02F05206D8A05306500E522426
:10031800D96E010E5320DA6E4AC015F04BC016F0A4
:100328004CC017F04DC018F04EC019F04FC01AF06D
:1003380050C01BF051C01CF00A0E1D6E000E1E6E40
:10034800000E1F6E000E206E000E216E000E226E33
:10035800000E236E000E246E22EC04F015C03AF055
:1003680016C03BF017C03CF018C03DF019C03EF075
:100378001AC03FF01BC040F01CC041F03AC027F043
:100388003CC028F0E1EC07F02750300FDF6E440640
:10039800D8A045064606D8A047064AC015F04BC067
:1003A80016F04CC017F04DC018F04EC019F04FC0F1
:1003B8001AF050C01BF051C01CF00A0E1D6E000E42
:1003C8001E6E000E1F6E000E206E000E216E000EB7
:1003D800226E000E236E000E246E5EEC03F015C034
:1003E8004AF016C04BF017C04CF018C04DF019C0B9
:1003F8004EF01AC04FF01BC050F01CC051F053BE55
:100408000EEF02F0535008E15204D8A00EEF02F0AC
:1004180010EF02F040EF02F04A504B104C104D1014
:100428004E104F1050105110D8A41DEF02F01FEFBE
:1004380002F087EF01F045BE2CEF02F0455006E1CF
:100448004404D8B02AEF02F02CEF02F087EF01F055
:1004580047BE37EF02F0475008E14604D8A037EF0F
:1004680002F039EF02F040EF02F058B23EEF02F02E
:1004780040EF02F087EF01F048504910D8A447EF49
:1004880002F049EF02F050EF02F058A44EEF02F0EC
:1004980050EF02F06EEF02F05206D8A05306485013
:1004A8004910D8A45AEF02F05CEF02F062EF02F0B4
:1004B800000E436E2B0E426E66EF02F0000E436E86
:1004C8002D0E426E500E5224D96E010E5320DA6E54
:1004D80042C0DFFF30C025F031C026F0500E522454
:1004E800276E010E5320286E46C029F047C02AF017
:1004F800A5EC05F025C030F026C031F0120082C00E
:10050800D9FF83C0DAFFDECFF6FFDDCFF7FF0800A3
:10051800F550250AD8A493EF02F095EF02F042EFC8
:1005280003F082C0D9FF83C0DAFFDE2A000EDD2285
:10053800000E0001AF6F000EAE6FAEC058F0AFC036
:1005480059F05668576882C0D9FF83C0DAFFDECFFA
:10055800F6FFDDCFF7FF0800F550640AD8B4B7EF0F
:1005680002F0B9EF02F0CBEF02F082C0D9FF83C0EE
:10057800DAFFDECFF6FFDDCFF7FF0800F550690A96
:10058800D8A4C9EF02F0CBEF02F00BEF03F082C062
:10059800D9FF83C0DAFFDE2A000EDD2284C0D9FF2E
:1005A80085C0DAFFDFCF54F0020EDE26DFCF55F02C
:1005B800000EDD2254C0D9FF55C0DAFFDECF86F029
:1005C800DDCF87F0000E87BFFF0E886F896F8A6FB7
:1005D8008B6F8C6F8D6F80C030F081C031F086C01A
:1005E80032F087C033F088C034F089C035F08AC053
:1005F80036F08BC037F08CC038F08DC039F014EC71
:1006080001F030C080F031C081F05DEF03F082C0AE
:10061800D9FF83C0DAFFDECFF6FFDDCFF7FF080092
:10062800F550250AD8A41BEF03F01DEF03F035EFB2
:1006380003F082C0D9FF83C0DAFFDE2A000EDD2274
:10064800000E166E250E156E80C017F081C018F0CA
:1006580040EC05F0000E0001816F010E806F5DEF28
:1006680003F082C0D9FF83C0DAFFDE2A000EDD2244
:10067800000E816F000E806F5DEF03F082C0D9FF1E
:1006880083C0DAFFDECFF6FFDDCFF7FF0800F550B5
:10069800156E166A80C017F081C018F040EC05F09E
:1006A80082C0D9FF83C0DAFFDE2A000EDD222EEFDA
:1006B80003F01200000E266E24BE67EF03F065EF0C
:1006C80003F079EF03F0241E231E221E211E201E94
:1006D8001F1E1E1E1D6C000E1E221F2220222122FC
:1006E800222223222422010E266E1CBE80EF03F054
:1006F8007EEF03F092EF03F01C1E1B1E1A1E191E3C
:10070800181E171E161E156C000E16221722182208
:1007180019221A221B221C22010E261A20EE27F06B
:10072800070EDE6AE806FDE21D501E101F1020109D
:100738002110221023102410D8B4A5EF03F0A7EF3E
:1007480003F0F9EF03F0010E256EB5EF03F0D89032
:100758001D361E361F3620362136223623362436DD
:10076800252A24AEBAEF03F0BCEF03F0ABEF03F099
:10077800D8902736283629362A362B362C362D3669
:100788002E361D50155C1E5016581F5017582050F5
:1007980018582150195822501A5823501B582450C1
:1007A8001C58D8A0DAEF03F0DCEF03F0EDEF03F00C
:1007B8001D50155E1E50165A1F50175A2050185AB1
:1007C8002150195A22501A5A23501B5A24501C5A85
:1007D8002780D890243223322232213220321F320D
:1007E8001E321D32252EBCEF03F02650D8B4FFEF81
:1007F80003F001EF04F011EF04F02E1E2D1E2C1E45
:100808002B1E2A1E291E281E276C000E282229228C
:100818002A222B222C222D222E2227C015F028C076
:1008280016F029C017F02AC018F02BC019F02CC0F8
:100838001AF02DC01BF02EC01CF01200000E266E00
:100848001CBE2BEF04F029EF04F03DEF04F01C1E52
:100858001B1E1A1E191E181E171E161E156C000EBA
:1008680016221722182219221A221B221C22010ED4
:10087800266E24BE44EF04F042EF04F054EF04F077
:10088800241E231E221E211E201E1F1E1E1E1D6C1E
:10089800000E1E221F22202221222222232224226D
:1008A8001D501E101F10201021102210231024107C
:1008B800D8B461EF04F063EF04F0ABEF04F0010E7D
:1008C800256E71EF04F0D8901D361E361F3620367F
:1008D8002136223623362436252A24AE76EF04F034
:1008E80078EF04F067EF04F01D50155C1E501658A1
:1008F8001F501758205018582150195822501A586C
:1009080023501B5824501C58D8A08DEF04F08FEFAB
:1009180004F09FEF04F01D50155E1E50165A1F502C
:10092800175A2050185A2150195A22501A5A23502F
:100938001B5A24501C5AD890243223322232213296
:1009480020321F321E321D32252E78EF04F0265039
:10095800D8B4B1EF04F0B3EF04F0C3EF04F01C1EF9
:100968001B1E1A1E191E181E171E161E156C000EA9
:1009780016221722182219221A221B221C2215C0FD
:1009880015F016C016F017C017F018C018F019C0E7
:1009980019F01AC01AF01BC01BF01CC01CF0120082
:1009A800070EC16E000E926E000E956E010E936ECC
:1009B800F90ECB6EFC0ECA16CA849492BA50F00B8C
:1009C8000C09BA6E800E156E0F0E166E830E176E1A
:1009D8000F0E186E91EC08F0020E196E000E1A6ECA
:1009E800100E06EC06F0F80EC016C050C70B08092A
:1009F800C06EC08EC250C30B1409C26EC280F2888A
:100A0800F292F19C9E9C9D8C9F9CD08EF28CF28ED3
:100A1800D596F80ED516D59AD59CD58EFB0ED76EE1
:100A28001F0ED66EF28AF294F28EF28CC2829AEC83
:100A380008F00F0E1A6E020E1B6ECDEC06F062C0A7
:100A4800A6F063C0A7F035EC08F0000E1A6E010E90
:100A5800196E000EC0EC07F01B0E1A6E020E1B6E0C
:100A6800CDEC06F060C0A6F061C0A7F035EC08F048
:100A78001AEF05F0B9EF00F017501810D8B447EF87
:100A880005F049EF05F052EF05F017501810D8A4FB
:100A980050EF05F052EF05F057EF05F01550CFEC89
:100AA80008F0A4EF05F020EE04F01750D9261850EE
:100AB800DA22DE50DE10D8B464EF05F066EF05F0F8
:100AC80081EF05F020EE04F01750D9261850DA22ED
:100AD80010EE02F01750E1261850E222DE50E65CD4
:100AE800E650800A1D6EDE50800A1D58D8B07FEF90
:100AF80005F081EF05F0A4EF05F020EE02F01750A5
:100B0800D9261850DA22DECF19F0DDCF1AF017C037
:100B1800D9FF18C0DAFFDECF1BF0DDCF1CF019506B
:100B28001B24D96E1A501C20DA6E15C0DFFF20EE88
:100B380002F01750D9261850DA22DE2A000EDD22DC
:100B4800120058A0AAEF05F0ACEF05F0B6EF05F0DB
:100B580027C01EF028C01FF025C020F026C021F0B5
:100B68009EEC07F02ABEBBEF05F0BDEF05F0C3EF22
:100B780005F029C02EF02AC02FF0C7EF05F0000EAF
:100B88002F6E000E2E6E000E2D6E000E2C6ED9EFFD
:100B980005F0000E166E200E156E25C017F026C043
:100BA80018F040EC05F02C4A2D2A2E502C5C2D50C4
:100BB800800A2B6E2F50800A2B58D8A0E6EF05F03C
:100BC800E8EF05F0CDEF05F058B0EDEF05F0EFEFE9
:100BD80005F0F9EF05F027C01EF028C01FF025C06A
:100BE80020F026C021F09EEC07F027C015F028C0A1
:100BF80016F001EC08F02E501524256E2F50162003
:100C0800266E12001C6E100E6A6E010E19640FEF2C
:100C180006F011EF06F012EF06F06A8619C065F0CB
:100C2800400E156E1CC016F01C50400F176E000EBB
:100C380073EC08F01A50D8B424EF06F026EF06F04B
:100C480027EF06F06A840E0E1B6E4E0EE82EFED7B6
:100C58001B2EFCD700D06A502009B1EC08F0FA0E20
:100C680000D0E82EFDD76A502009B1EC08F00A0E32
:100C7800E82EFED76A502009B1EC08F06A50200926
:100C8800B1EC08F0040E676EBFEC08F0A2EC08F0B7
:100C9800020E666E66500409B1EC08F01200E1CF4E
:100CA80008F0E2CF09F0D9CF0AF0DACF0BF0F6CF8F
:100CB8000CF0F7CF0DF0F8CF0EF0F5CF0FF0F2A84B
:100CC80068EF06F06AEF06F08AEF06F0F2A26FEF1F
:100CD80006F071EF06F08AEF06F0F292000EBB6E96
:100CE800010E066E020E076EFCEC06F064B002D030
:100CF800819201D081826404D8A485EF06F088EF40
:100D080006F0010E89EF06F0000E646E0FC0F5FFC5
:100D18000EC0F8FF0DC0F7FF0CC0F6FF0BC0DAFFDE
:100D28000AC0D9FF09C0E2FF08C0E1FF6B921100B9
:100D380090C094F091C095F0000E0001AD6F000EC8
:100D4800AC6FBAEF06F08EC080F08FC081F0940EC1
:100D5800826F000E836F92C084F093C085F083EC9D
:100D680002F000018051AC278151AD2394C0F6FFF9
:100D780095C0F7FF0800F5500009D8A4C6EF06F0A3
:100D8800C8EF06F0A7EF06F0ACC08EF0ADC08FF04C
:100D98001200E3EF06F01AC0F6FF1BC0F7FFF86A6F
:100DA800010EF76403D00800F55005D0F6CFE1FF37
:100DB800F7CFE2FFE750C5EC08F01A4A1B2A1AC021
:100DC800F6FF1BC0F7FFF86A010EF76403D00800AE
:100DD800F55005D0F6CFE1FFF7CFE2FFE750000965
:100DE800D8A4F9EF06F0FBEF06F0CFEF06F01200FB
:100DF80012EF07F006C0F6FF07C0F7FFF86A010E0A
:100E0800F76403D00800F55005D0F6CFE1FFF7CF1F
:100E1800E2FFE750CAEC08F0064A072A06C0F6FFC8
:100E280007C0F7FFF86A010EF76403D00800F55011
:100E380005D0F6CFE1FFF7CFE2FFE7500009D8A4CD
:100E480028EF07F02AEF07F0FEEF06F012009A0EDF
:100E580000019E6F000E9F6F96C0A0F097C0A1F092
:100E6800000EA36F000EA26F000EA56F000EA46FF8
:100E7800A00E8E6F000E8F6F98C090F099C091F001
:100E88009E0E926F000E936F9CEC06F00001A2512B
:100E98009625D96EA3519721DA6E000EDF6E1200E7
:100EA800176E1650D8B45BEF07F05DEF07F064EFEC
:100EB80007F068C0D9FF69C0DAFFDF8069EF07F083
:100EC80068C0D9FF69C0DAFFDF9068C0D9FF69C080
:100ED800DAFFDF926AA873EF07F075EF07F078EF93
:100EE80007F017507DEC08F01200036E0250D8B4DA
:100EF80080EF07F082EF07F089EF07F068C0D9FFAD
:100F080069C0DAFFDF808EEF07F068C0D9FF69C0DB
:100F1800DAFFDF9068C0D9FF69C0DAFFDF926AA8FC
:100F280098EF07F09AEF07F09DEF07F0035087EC72
:100F380008F01200000E246E000E236EAFEF07F0CB
:100F480022C015F0166A20C017F021C018F040EC36
:100F580005F0234A242A23501E24D96E24501F202A
:100F6800DA6EDF50226E2250D8A4BDEF07F0BFEF33
:100F780007F0A4EF07F012001D6E65501B6E1C6A87
:100F88001B50195C1C501A58D8A0CDEF07F0CFEFB2
:100F980007F0D5EF07F0FF0E6524196E1A6AFF0EE9
:100FA8001A22A80E1924D96E000E1A20DA6EDF5004
:100FB8001D248009B1EC08F0120028BEEEEF07F0FE
:100FC800285006E12704D8B0ECEF07F0EEEF07F061
:100FD800FCEF07F027C029F028C02AF0291E2A1E96
:100FE800294A2A2A29C027F02AC028F000EF08F049
:100FF80027C027F028C028F0120015C017F016C027
:1010080018F009EF08F0154A162A15C0D9FF16C0BE
:10101800DAFFDF50D8A413EF08F015EF08F007EF58
:1010280008F01750155C156E18501658166E1200F9
:1010380001EE50F0200EEE6AE806FDE100EEA8F0A1
:10104800080EEE6AE806FDE100EE56F0120EEE6AB2
:10105800E806FDE16B906B92000EF86E0001D4EF8C
:1010680004F0000E0001966F010E976F230E986F23
:10107800020E996FA6C09AF0A7C09BF02BEC07F060
:10108800000E1A6E010E1B6ECDEC06F0120068C041
:10109800D9FF69C0DAFFDF9468C0D9FF69C0DAFFF9
:1010A800DF8468C0D9FF69C0DAFFDF94080EE82E34
:1010B800FED700F0120068C0D9FF69C0DAFFDF94DC
:1010C80068C0D9FF69C0DAFFDF8468C0D9FF69C08A
:1010D800DAFFDF94080EE82EFED700F01200186E33
:1010E80018C0A8F015C0A9F016C0AAF017C0ABF038
:1010F8001200156EB0C0D9FFB1C0DAFF15C0DFFF0E
:101108004BEC08F01200016EB0C0D9FFB1C0DAFF95
:1011180001C0DFFF5FEC08F0120015C0B0F016C088
:10112800B1F017C068F018C069F01200020EB1ECF7
:1011380008F0A60EE82EFED700D01200010EB1EC82
:1011480008F0A60EE82EFED700D01200186E010E89
:10115800166E185054EC07F01200186E000E166E3A
:10116800185054EC07F01200046E010E026E045081
:1011780079EC07F01200678467500809B1EC08F0B1
:101188001200196E1950AAEC08F01200056E0550ED
:08119800B8EC08F0120012008F
:020000040020DA
:08000000FFFFFFFFFFFFFFFF00
:020000040030CA
:0E000000FF08191EFF8380FF03C003E00340CA
:00000001FF
