:020000040000FA
:04000000B9EF00F064
:100008006F829EAC0AEF00F00CEF00F0B7EF00F043
:100018009DAC11EF00F013EF00F0B7EF00F09E9CDD
:10002800C230E8320F0B0009D8A41DEF00F01FEF13
:1000380000F04EEF00F0C350C4CF0DF00E6A0DC0B3
:100048000EF00D6A0D100001BA6F0E50BB6FFF0E57
:10005800B06F010EB16F000EB26F000EB36FBAC071
:100068000DF0BBC00EF0000E0EBEFF0E0F6E106E30
:10007800B0510D5C626EB1510E58636EB2510F589B
:10008800646EB3511058656EC250C30B0409C26E3A
:1000980084EF00F0C230E8320F0BE806D8A457EF1F
:1000A80000F059EF00F084EF00F0C350C4CF0DF01A
:1000B8000E6A0DC00EF00D6A0D100001B86F0E50DB
:1000C800B96FFF0EAC6F010EAD6F000EAE6F000E74
:1000D800AF6FB8C00DF0B9C00EF0000E0EBEFF0E27
:1000E8000F6E106EAC510D5C5E6EAD510E585F6EAA
:1000F800AE510F58606EAF511058616EC30EC216E4
:100108005E50625C0101586F5F506358596F6050D0
:1001180064585A6F615065585B6F5E506224546F23
:100128005F506320556F60506420566F61506520A2
:10013800576F62C001F063C002F064C003F065C08D
:1001480004F05EC005F05FC006F060C007F061C053
:1001580008F016EC08F001C050F102C051F103C0DC
:0E01680052F104C053F16F92110092EF09F0B2
:10020000002020202020202020202000256C6400B9
:10021000292A2800292B2800292D28006C6900256F
:07022000640029003D00000D
:100228002EC046F02FC047F030C048F031C049F02A
:1002380032C04AF033C04BF034C04CF035C04DF0FA
:100248004DBE29EF01F02CEF01F0010E2DEF01F06A
:10025800000E446E456A44504510D8B436EF01F09C
:1002680038EF01F048EF01F04D1E4C1E4B1E4A1EA0
:10027800491E481E471E466C000E47224822492246
:100288004A224B224C224D2267BE4DEF01F04FEF20
:1002980001F050EF01F0689267BE5DEF01F0675022
:1002A80006E16604D8B05BEF01F05DEF01F063EFA3
:1002B80001F0000E416E010E406E67EF01F066C05E
:1002C80040F067C041F0B6C042F0B7C043F04450B8
:1002D8004510D8A472EF01F074EF01F07BEF01F044
:1002E80068A479EF01F07BEF01F07EEF01F04206A0
:1002F800D8A04306000E4F6E1F0E4E6E000E010171
:100308007F6F03EF02F04E06D8A04F06600E4E2412
:10031800D96E010E4F20DA6E46C011F047C012F0B8
:1003280048C013F049C014F04AC015F04BC016F08D
:100338004CC017F04DC018F00A0E196E000E1A6E58
:10034800000E1B6E000E1C6E000E1D6E000E1E6E43
:10035800000E1F6E000E206EDCEC05F011C036F0AA
:1003680012C037F013C038F014C039F015C03AF095
:1003780016C03BF017C03CF018C03DF036C023F063
:1003880038C024F03DEC09F02350300FDF6E4006F2
:10039800D8A041064206D8A0430646C011F047C07F
:1003A80012F048C013F049C014F04AC015F04BC011
:1003B80016F04CC017F04DC018F00A0E196E000E5A
:1003C8001A6E000E1B6E000E1C6E000E1D6E000EC7
:1003D8001E6E000E1F6E000E206E18EC05F011C088
:1003E80046F012C047F013C048F014C049F015C0D9
:1003F8004AF016C04BF017C04CF018C04DF04FBE75
:100408000EEF02F04F5008E14E04D8A00EEF02F0B4
:1004180010EF02F040EF02F0465047104810491024
:100428004A104B104C104D10D8A41DEF02F01FEFCE
:1004380002F087EF01F041BE2CEF02F0415006E1D7
:100448004004D8B02AEF02F02CEF02F087EF01F059
:1004580043BE37EF02F0435008E14204D8A037EF1B
:1004680002F039EF02F040EF02F068B23EEF02F01E
:1004780040EF02F087EF01F044504510D8A447EF51
:1004880002F049EF02F050EF02F068A44EEF02F0DC
:1004980050EF02F06EEF02F04E06D8A04F0644501F
:1004A8004510D8A45AEF02F05CEF02F062EF02F0B8
:1004B800000E3F6E2B0E3E6E66EF02F0000E3F6E92
:1004C8002D0E3E6E600E4E24D96E010E4F20DA6E50
:1004D8003EC0DFFF2CC021F02DC022F0600E4E245C
:1004E800236E010E4F20246E42C025F043C026F033
:1004F80062EC07F021C02CF022C02DF0120052C08F
:10050800D9FF53C0DAFFDECFF6FFDDCFF7FF0800D3
:10051800F550250AD8A493EF02F095EF02F0BBEF4F
:1005280003F052C0D9FF53C0DAFFDE2A000EDD22E5
:10053800000E0001B76F000EB66FB6C068F0B7C006
:1005480069F06668676852C0D9FF53C0DAFFDECF2A
:10055800F6FFDDCFF7FF0800F550640AD8B4B7EF0F
:1005680002F0B9EF02F0CBEF02F052C0D9FF53C04E
:10057800DAFFDECFF6FFDDCFF7FF0800F550690A96
:10058800D8A4C9EF02F0CBEF02F00BEF03F052C092
:10059800D9FF53C0DAFFDE2A000EDD2254C0D9FF8E
:1005A80055C0DAFFDFCF80F0020EDE26DFCF81F004
:1005B800000EDD2280C0D9FF81C0DAFFDECF56F001
:1005C800DDCF57F0000E57BEFF0E586E596E5A6EAB
:1005D8005B6E5C6E5D6E50C02CF051C02DF056C045
:1005E8002EF057C02FF058C030F059C031F05AC023
:1005F80032F05BC033F05CC034F05DC035F014EC11
:1006080001F02CC050F02DC051F0D6EF03F052C0CD
:10061800D9FF53C0DAFFDECF11F0DDCF12F00D0E97
:10062800136E020E146E000E166E020E156E8EEC10
:1006380006F011501210D8B424EF03F026EF03F09F
:1006480041EF03F052C0D9FF53C0DAFFDECF11F0FB
:10065800DDCF12F01C0E136E020E146E000E166E15
:10066800020E156E8EEC06F011501210D8A43FEF52
:1006780003F041EF03F085EF03F0020E52C0D9FFFB
:1006880053C0DAFFDE26000EDD2254C0D9FF55C064
:10069800DAFFDFCF80F0040EDE26DFCF81F0000E18
:1006A800DD2280C0D9FF81C0DAFFDECF82F0DECF45
:1006B80083F0DECF84F0DECF85F082C086F083C081
:1006C80087F084C088F085C089F000018A6B89BFF3
:1006D8008A698AC08BF08AC08CF08AC08DF086C087
:1006E80056F087C057F088C058F089C059F08AC0C2
:1006F8005AF08BC05BF08CC05CF08DC05DF0EFEF02
:1007080002F052C0D9FF53C0DAFFDECFF6FFDDCFCB
:10071800F7FF0800F550250AD8A495EF03F097EFE6
:1007280003F0AEEF03F052C0D9FF53C0DAFFDE2A60
:10073800000EDD22000E126E250E116E50C013F051
:1007480051C014F0FDEC06F0000E516E010E506E13
:10075800D6EF03F052C0D9FF53C0DAFFDE2A000EED
:10076800DD22000E516E000E506ED6EF03F052C01F
:10077800D9FF53C0DAFFDECFF6FFDDCFF7FF080061
:10078800F550116E126A50C013F051C014F0FDEC10
:1007980006F052C0D9FF53C0DAFFDE2A000EDD2270
:1007A800A8EF03F01200000E946E180E956E820EDC
:1007B800116E0F0E126E830E136E0F0E146ED3ECA5
:1007C80009F0020E156E000E166E100EC3EC07F03F
:1007D8000D0EC16E92809282F80EC016C050C70BE3
:1007E8000809C06EC08EC30EC216C2809E9C9D8C26
:1007F8009F8CD09EF28CF28EC28283A606EF04F004
:1008080008EF04F05CEF04F083B80DEF04F00FEF8D
:1008180004F05CEF04F0DCEC09F0120E166E020E28
:10082800176E7CEC08F062C0A8F063C0A9F064C041
:10083800AAF065C0ABF078EC09F0180E166E020E3F
:10084800176E7CEC08F05EC0A8F05FC0A9F060C02D
:10085800AAF061C0ABF078EC09F0220E166E020E19
:10086800176E7CEC08F0240E166E020E176E7CECE8
:1008780008F0010E166E020E176E7CEC08F0000EE2
:10088800166E010E156E000E1CEC09F058C1A8F08A
:1008980059C1A9F05AC1AAF05BC1ABF078EC09F0D4
:1008A800010E166E020E176E7CEC08F000EF04F0D5
:1008B80083B661EF04F063EF04F0B7EF04F083A8A8
:1008C80068EF04F06AEF04F0B7EF04F0DCEC09F02D
:1008D800120E166E020E176E7CEC08F062C0A8F0BD
:1008E80063C0A9F064C0AAF065C0ABF078EC09F069
:1008F800140E166E020E176E7CEC08F05EC0A8F09F
:100908005FC0A9F060C0AAF061C0ABF078EC09F054
:10091800220E166E020E176E7CEC08F0240E166E70
:10092800020E176E7CEC08F0010E166E020E176EA2
:100938007CEC08F0000E166E010E156E000E1CEC15
:1009480009F054C1A8F055C1A9F056C1AAF057C181
:10095800ABF078EC09F0010E166E020E176E7CEC07
:1009680008F000EF04F083A6BCEF04F0BEEF04F03B
:1009780012EF05F083A8C3EF04F0C5EF04F012EFFF
:1009880005F0DCEC09F0120E166E020E176E7CEC08
:1009980008F062C0A8F063C0A9F064C0AAF065C0FE
:1009A800ABF078EC09F0100E166E020E176E7CECA8
:1009B80008F05EC0A8F05FC0A9F060C0AAF061C0EE
:1009C800ABF078EC09F0220E166E020E176E7CEC76
:1009D80008F0240E166E020E176E7CEC08F0010E5D
:1009E800166E020E176E7CEC08F0000E166E010EE5
:1009F800156E000E1CEC09F050C1A8F051C1A9F009
:100A080052C1AAF053C1ABF078EC09F0010E166E92
:100A1800020E176E7CEC08F000EF04F0E4EC09F02D
:100A280000EF04F0B9EF00F0000E226E20BE21EFB7
:100A380005F01FEF05F033EF05F0201E1F1E1E1EE8
:100A48001D1E1C1E1B1E1A1E196C000E1A221B22AC
:100A58001C221D221E221F222022010E226E18BED9
:100A68003AEF05F038EF05F04CEF05F0181E171EA9
:100A7800161E151E141E131E121E116C000E1222B5
:100A8800132214221522162217221822010E221AC6
:100A980020EE23F0070EDE6AE806FDE219501A1070
:100AA8001B101C101D101E101F102010D8B45FEF53
:100AB80005F061EF05F0B3EF05F0010E216E6FEF61
:100AC80005F0D89019361A361B361C361D361E36D8
:100AD8001F362036212A20AE74EF05F076EF05F098
:100AE80065EF05F0D8902336243625362636273686
:100AF800283629362A361950115C1A5012581B50BC
:100B080013581C5014581D5015581E5016581F5075
:100B1800175820501858D8A094EF05F096EF05F014
:100B2800A7EF05F01950115E1A50125A1B50135AAC
:100B38001C50145A1D50155A1E50165A1F50175A39
:100B48002050185A2380D89020321F321E321D326E
:100B58001C321B321A321932212E76EF05F0225040
:100B6800D8B4B9EF05F0BBEF05F0CBEF05F02A1EBE
:100B7800291E281E271E261E251E241E236C000E35
:100B88002422252226222722282229222A2223C07B
:100B980011F024C012F025C013F026C014F027C0AD
:100BA80015F028C016F029C017F02AC018F0120056
:100BB800000E226E18BEE5EF05F0E3EF05F0F7EF43
:100BC80005F0181E171E161E151E141E131E121EC3
:100BD800116C000E1222132214221522162217223B
:100BE8001822010E226E20BEFEEF05F0FCEF05F084
:100BF8000EEF06F0201E1F1E1E1E1D1E1C1E1B1E95
:100C08001A1E196C000E1A221B221C221D221E22DB
:100C18001F22202219501A101B101C101D101E1004
:100C28001F102010D8B41BEF06F01DEF06F065EF7B
:100C380006F0010E216E2BEF06F0D89019361A3601
:100C48001B361C361D361E361F362036212A20AE8E
:100C580030EF06F032EF06F021EF06F01950115C84
:100C68001A5012581B5013581C5014581D50155820
:100C78001E5016581F50175820501858D8A047EF24
:100C880006F049EF06F059EF06F01950115E1A50B8
:100C9800125A1B50135A1C50145A1D50155A1E50E4
:100CA800165A1F50175A2050185AD89020321F32FF
:100CB8001E321D321C321B321A321932212E32EFEB
:100CC80006F02250D8B46BEF06F06DEF06F07DEF1A
:100CD80006F0181E171E161E151E141E131E121EB1
:100CE800116C000E1222132214221522162217222A
:100CF800182211C011F012C012F013C013F014C062
:100D080014F015C015F016C016F017C017F018C06B
:100D180018F0120011C018F012C019F013C01AF020
:100D280014C01BF01506D8A01606152806E11628CB
:100D3800D8A4A1EF06F0A3EF06F0B0EF06F0000E7E
:100D4800126E000E116EFCEF06F0184A192A1A4AA4
:100D58001B2A1506D8A0160618C0F6FF19C0F7FFFB
:100D68000800F5500009D8B4BCEF06F0BEEF06F055
:100D7800EAEF06F01AC0F6FF1BC0F7FF0800F550AF
:100D88000009D8B4CAEF06F0CCEF06F0EAEF06F097
:100D980015501610D8B4D3EF06F0D5EF06F0EAEFE9
:100DA80006F018C0F6FF19C0F7FF0800F5CF17F0D6
:100DB8001AC0F6FF1BC0F7FF0800F5501718D8B483
:100DC800E8EF06F0EAEF06F0A9EF06F018C0F6FF24
:100DD80019C0F7FF0800F5CF17F01AC0F6FF1BC0BF
:100DE800F7FF0800F550175C116E126AD8A01206BA
:100DF800120013501410D8B404EF07F006EF07F0F0
:100E08000FEF07F013501410D8A40DEF07F00FEFF1
:100E180007F014EF07F0115005EC0AF061EF07F046
:100E280020EE04F01350D9261450DA22DE50DE10DA
:100E3800D8B421EF07F023EF07F03EEF07F020EEDC
:100E480004F01350D9261450DA2210EE02F0135091
:100E5800E1261450E222DE50E65CE650800A196E64
:100E6800DE50800A1958D8B03CEF07F03EEF07F083
:100E780061EF07F020EE02F01350D9261450DA2261
:100E8800DECF15F0DDCF16F013C0D9FF14C0DAFF9E
:100E9800DECF17F0DDCF18F015501724D96E165095
:100EA8001820DA6E11C0DFFF20EE02F01350D926A9
:100EB8001450DA22DE2A000EDD22120068A067EF45
:100EC80007F069EF07F073EF07F023C01AF024C0AA
:100ED8001BF021C01CF022C01DF0FAEC08F026BE61
:100EE80078EF07F07AEF07F080EF07F025C02AF0D7
:100EF80026C02BF084EF07F0000E2B6E000E2A6E32
:100F0800000E296E000E286E96EF07F0000E126E86
:100F1800200E116E21C013F022C014F0FDEC06F073
:100F2800284A292A2A50285C2950800A276E2B50E3
:100F3800800A2758D8A0A3EF07F0A5EF07F08AEF9B
:100F480007F068B0AAEF07F0ACEF07F0B6EF07F0CC
:100F580023C01AF024C01BF021C01CF022C01DF0D1
:100F6800FAEC08F023C011F024C012F05DEC09F08F
:100F78002A501124216E2B501220226E1200186E56
:100F8800100E0001BE6F010E1564CDEF07F0CFEF14
:100F980007F0D0EF07F0BE8715C06AF0400E116E5B
:100FA80018C012F01850400F136E000EBFEC09F075
:100FB8001650D8B4E2EF07F0E4EF07F0E6EF07F0D9
:100FC8000001BE850E0E176E4E0EE82EFED7172EA8
:100FD800FCD700D00001BE512009F3EC09F0FA0E4D
:100FE80000D0E82EFDD70001BE512009F3EC09F02E
:100FF8000A0EE82EFED70001BE512009F3EC09F0D5
:101008000001BE512009F3EC09F0040E6C6EFAECF5
:1010180009F0E4EC09F0020E6B6E6B500409F3EC76
:1010280009F01200000E096E000E0A6E000E0B6E1B
:10103800000E0C6E01A023EF08F025EF08F02DEF4D
:1010480008F00550092606500A2207500B220850BE
:101058000C22D8900536063607360836D890043262
:101068000332023201320150021003100410D8A4D6
:1010780040EF08F042EF08F01EEF08F009C001F059
:101088000AC002F00BC003F00CC004F0120090C0BC
:1010980094F091C095F0000E0001B56F000EB46F8A
:1010A80069EF08F08EC050F08FC051F0940E526E68
:1010B800000E536E92C054F093C055F083EC02F0CA
:1010C80050500001B4275150B52394C0F6FF95C085
:1010D800F7FF0800F5500009D8A475EF08F077EF7E
:1010E80008F056EF08F0B4C08EF0B5C08FF01200CB
:1010F80092EF08F016C0F6FF17C0F7FFF86A010E66
:10110800F76403D00800F55005D0F6CFE1FFF7CF1C
:10111800E2FFE75000EC0AF0164A172A16C0F6FF5D
:1011280017C0F7FFF86A010EF76403D00800F550FE
:1011380005D0F6CFE1FFF7CFE2FFE7500009D8A4CA
:10114800A8EF08F0AAEF08F07EEF08F012009A0E58
:101158000001A06F000EA16F96C0A2F097C0A3F087
:10116800000EA56F000EA46F000EA76F000EA66FED
:10117800A20E8E6F000E8F6F98C090F099C091F0FC
:10118800A00E926F000E936F4BEC08F00001A45173
:101198009625D96EA5519721DA6E000EDF6E1200E2
:1011A800136E1250D8B4DBEF08F0DDEF08F0E4EF6F
:1011B80008F06DC0D9FF6EC0DAFFDF80E9EF08F0F4
:1011C8006DC0D9FF6EC0DAFFDF906DC0D9FF6EC069
:1011D800DAFFDF920001BEA9F4EF08F0F6EF08F09D
:1011E800F9EF08F01350C9EC09F01200000E206E58
:1011F800000E1F6E0BEF09F01EC011F0126A1CC022
:1012080013F01DC014F0FDEC06F01F4A202A1F50F1
:101218001A24D96E20501B20DA6EDF501E6E1E5025
:10122800D8A419EF09F01BEF09F000EF09F012003C
:10123800196E6A50176E186A1750155C18501658B0
:10124800D8A029EF09F02BEF09F031EF09F0FF0ED4
:101258006A24156E166AFF0E16225C0E1524D96EC6
:10126800010E1620DA6EDF5019248009F3EC09F01C
:10127800120024BE4AEF09F0245006E12304D8B036
:1012880048EF09F04AEF09F058EF09F023C025F0BC
:1012980024C026F0251E261E254A262A25C023F00E
:1012A80026C024F05CEF09F023C023F024C024F00A
:1012B800120011C013F012C014F065EF09F0114AC2
:1012C800122A11C0D9FF12C0DAFFDF50D8A46FEF7D
:1012D80009F071EF09F063EF09F01350115C116E1A
:1012E80014501258126E1200000E0001966F010E73
:1012F800976F0C0E986F020E996FA8C09AF0A9C04C
:101308009BF0AAC09CF0ABC09DF0ABEC08F0000EBF
:10131800166E010E176E7CEC08F0120001EE50F00C
:10132800300EEE6AE806FDE100EEACF0100EEE6A53
:10133800E806FDE100EE5EF00F0EEE6AE806FDE15C
:101348006F906F92000EF86E0001D7EF03F06DC03A
:10135800D9FF6EC0DAFFDF946DC0D9FF6EC0DAFF27
:10136800DF846DC0D9FF6EC0DAFFDF94080EE82E67
:10137800FED700F01200146E14C05CF111C05DF1CC
:1013880012C05EF113C05FF11200116EBCC0D9FF2C
:10139800BDC0DAFF11C0DFFFABEC09F0120011C0CD
:1013A800BCF012C0BDF013C06DF014C06EF0120096
:1013B800020EF3EC09F0A60EE82EFED700D01200BC
:1013C800010EF3EC09F0A60EE82EFED700D01200AD
:1013D800146E010E126E1450D4EC08F01200146E44
:1013E800000E126E1450D4EC08F012006C846C508D
:1013F8000809F3EC09F01200156E1550ECEC09F031
:0414080012001200BC
:020000040020DA
:08000000FFFFFFFFFFFFFFFF00
:020000040030CA
:0E000000FF08191EFF8380FF03C003E00340CA
:00000001FF
