:020000040000FA
:0400000064EF00F0B9
:100008004F82F3CF4DF0F4CF4EF09EAC0EEF00F0E0
:1000180010EF00F05EEF00F09DAC15EF00F017EF69
:1000280000F05EEF00F09E9C000E2C6EC00E2D6E50
:100038007F0E2E6E440E2F6E000E136E000E146E81
:100048007F0E156E430E166EC350C4CF4BF04C6A2C
:100058004BC04CF04B6A4B12000E4C124BC001F0D7
:100068004CC002F0000E02BEFF0E036E046E010EBD
:1000780048EC04F001C00FF002C010F003C011F00A
:1000880004C012F066EC00F00FC028F010C029F090
:1000980011C02AF012C02BF07BEC02F028C041F00E
:1000A80029C042F02AC043F02BC044F022EC05F0EE
:1000B8004150BB6E4EC0F4FF4DC0F3FF4F9211008C
:1000C800C7EF05F01250800B1B6E12501224216EE0
:1000D80011AE71EF00F073EF00F074EF00F02180C3
:1000E8002150D8B47AEF00F07CEF00F08FEF00F0E9
:1000F8002128D8A482EF00F084EF00F08CEF00F004
:10010800000E0F6E000E106E000E116E000E126EB5
:10011800118E97EF00F0000E0F6E000E106E000E9D
:10012800116E000E126E1650800B1B1A16501624F4
:10013800206E15AEA2EF00F0A4EF00F0A5EF00F0DE
:1001480020802050D8B4ABEF00F0ADEF00F0C0EF46
:1001580000F02028D8A4B3EF00F0B5EF00F0BDEF11
:1001680000F0000E136E000E146E000E156E000ED9
:10017800166E158EC8EF00F0000E136E000E146E8A
:10018800000E156E000E166E2050D8B4CEEF00F09B
:10019800D0EF00F0D8EF00F02150D8A4D6EF00F04F
:1001A800D8EF00F0E2EF00F0000E0F6E000E106EB8
:1001B800000E116E000E126E7AEF02F015500F024B
:1001C800F3CF26F0F4CF27F026501C6E1D6A1E6A66
:1001D8001F6A2750226E236A246A256A1450100267
:1001E800F3CF26F0F4CF27F026501C26000E1D2250
:1001F8001E221F2227502226000E232224222522D7
:1002080013501102F3CF26F0F4CF27F026501C2606
:10021800000E1D221E221F2227502226000E2322F6
:10022800242225221EC01FF01DC01EF01CC01DF078
:100238001C6A13501002F3CF26F0F4CF27F0265093
:100248001C2627501D22000E1E22000E1F221450AD
:100258000F02F3CF26F0F4CF27F026501C262750A4
:100268001D22000E1E22000E1F221EC01FF01DC0E0
:100278001EF01CC01DF01C6A13500F02F3CF26F0AD
:10028800F4CF27F026501C2627501D22000E1E22D0
:10029800000E1F2215501002F3CF26F0F4CF27F0DE
:1002A8002650222627502322000E2422000E252223
:1002B80014501102F3CF26F0F4CF27F0265022264F
:1002C80027502322000E2422000E25221550110249
:1002D800F3CF26F0F4CF27F02650176E2750186E6C
:1002E800196A1A6A19C01AF018C019F017C018F05C
:1002F800176A1750222618502322195024221A5000
:1003080025221CC017F01DC018F01EC019F01FC010
:100318001AF0190E95EF01F0D8901A3219321832E6
:100328001732E82E90EF01F017502226185023229A
:10033800195024221A5025221EC01FF01DC01EF07D
:100348001CC01DF01C6A205021C017F0186A17261F
:10035800000E1822820E1724266EFF0E1820276E14
:10036800CBEF01F0D89022362336243625361FAE3F
:10037800C0EF01F0C2EF01F0C3EF01F02280D89086
:100388001C361D361E361F362606D8A0270624AE74
:10039800D0EF01F0D2EF01F0B6EF01F0000E206EC1
:1003A8001FAED9EF01F0DBEF01F0FFEF01F0FF0E18
:1003B8001C14176EFF0E1D14186EFF0E1E14196EF6
:1003C8007F0E1F141A6E1750181019101A10D8B46F
:1003D800F0EF01F0F2EF01F0F6EF01F0010E206E00
:1003E800FFEF01F022A0FBEF01F0FDEF01F0FFEFBE
:1003F80001F0F2EF01F02050D8B405EF02F007EF5A
:1004080002F02BEF02F0010E2226000E23222422F6
:10041800252225A012EF02F014EF02F02BEF02F0D4
:1004280022C017F023C018F024C019F025C01AF014
:100438001A341A3219321832173217C022F018C07B
:1004480023F019C024F01AC025F0264A272A27BE0F
:1004580036EF02F0275008E12628D8A036EF02F040
:1004680038EF02F042EF02F0000E226E000E236E0B
:10047800800E246E7F0E256E70EF02F027BE4FEFC0
:1004880002F0275006E12604D8B04DEF02F04FEFF6
:1004980002F05BEF02F0000E226E000E236E000EDB
:1004A800246E000E256E000E1B6E70EF02F026C043
:1004B80021F0FF0E2216FF0E23167F0E2416000EC3
:1004C800251621A06AEF02F06CEF02F06DEF02F042
:1004D800248ED8902130256E1B50251222C00FF093
:1004E80023C010F024C011F025C012F012002B50C8
:1004F800800B386E2B502B243F6E2AAE86EF02F00D
:1005080088EF02F089EF02F03F803F50D8B48FEFB8
:1005180002F091EF02F0A6EF02F03F28D8A497EF7F
:1005280002F099EF02F0A1EF02F0000E286E000E23
:10053800296E000E2A6E000E2B6E2A8E000E2B6E70
:10054800AEEF02F0000E286E000E296E000E2A6E25
:10055800000E2B6E2F50800B381A2F502F24406E10
:100568002EAEB9EF02F0BBEF02F0BCEF02F0408014
:100578004050D8B4C2EF02F0C4EF02F0D9EF02F055
:100588004028D8A4CAEF02F0CCEF02F0D4EF02F072
:10059800000E2C6E000E2D6E000E2E6E000E2F6EAD
:1005A8002E8E000E2F6EE1EF02F0000E2C6E000E64
:1005B8002D6E000E2E6E000E2F6E2C502D102E104C
:1005C8002F10D8A4EAEF02F0ECEF02F004EF03F0EA
:1005D800000E286E000E296E000E2A6E000E2B6E7D
:1005E800800E2A127F0E2B1238502B1228C028F0AA
:1005F80029C029F02AC02AF02BC02BF047EF04F0BD
:100608003F50D8A40AEF03F00CEF03F016EF03F005
:10061800000E286E000E296E000E2A6E000E2B6E3C
:1006280047EF04F040503FC030F0316A305E000EB2
:10063800315A7F0E3024396E000E31203A6E28C0B0
:1006480034F029C035F02AC036F02BC037F0000E40
:10065800286E000E296E000E2A6E000E2B6E000EFC
:100668003B6E000E3C6E000E3D6E000E3E6E000EA0
:10067800406E77EF03F04050D8B445EF03F047EFF2
:1006880003F05EEF03F0D890343635363636373619
:10069800D890283629362A362B363EAE56EF03F048
:1006A80058EF03F059EF03F02880D8903B363C36DA
:1006B8003D363E362C50345C2D5035582E50365829
:1006C8002F503758D8A06BEF03F06DEF03F076EF9B
:1006D80003F03E8C2C50345E2D50355A2E50365A2D
:1006E8002F50375A402A190E40647DEF03F07FEFF0
:1006F80003F03FEF03F03450351036103710D8B4FC
:1007080088EF03F08AEF03F0A2EF03F03B80A2EF3B
:1007180003F0D890283629362A362B363EAE97EF86
:1007280003F099EF03F09AEF03F02880D8903B3656
:100738003C363D363E363906D8A03A062AAEA7EFF3
:1007480003F0A9EF03F08DEF03F0000E406E3EAE0C
:10075800B0EF03F0B2EF03F0D6EF03F0FF0E3B1457
:10076800306EFF0E3C14316EFF0E3D14326E7F0E5C
:100778003E14336E3050311032103310D8B4C7EFF6
:1007880003F0C9EF03F0CDEF03F0010E406ED6EF92
:1007980003F028A0D2EF03F0D4EF03F0D6EF03F074
:1007A800C9EF03F04050D8B4DCEF03F0DEEF03F0FC
:1007B80002EF04F0010E2826000E29222A222B22FD
:1007C8002BA0E9EF03F0EBEF03F002EF04F028C0F1
:1007D80030F029C031F02AC032F02BC033F0333466
:1007E800333232323132303230C028F031C029F061
:1007F80032C02AF033C02BF0394A3A2A3ABE0DEFFC
:1008080004F03A5008E13928D8A00DEF04F00FEFB2
:1008180004F01AEF04F0000E3A6E3968000E286EE4
:10082800000E296E000E2A6E000E2B6E3ABE27EFC0
:1008380004F03A5006E13904D8B025EF04F027EF68
:1008480004F035EF04F0000E3A6E000E396E000E1B
:10085800286E000E296E000E2A6E000E2B6E000EFA
:10086800386E39C03FF03FA03CEF04F03EEF04F093
:1008780041EF04F02A8E42EF04F02A9ED8903F30D0
:100888002B6EF8EF02F01200096E0950D8B44FEF42
:1008980004F051EF04F073EF04F004BE58EF04F0D5
:1008A80056EF04F073EF04F001C005F002C006F043
:1008B80003C007F004C008F0051E061E071E081E28
:1008C800052A000E06220722082205C00BF006C0E2
:1008D8000CF007C00DF008C00EF07BEF04F001C06B
:1008E8000BF002C00CF003C00DF004C00EF0015074
:1008F800021003100410D8A484EF04F086EF04F06B
:1009080090EF04F0000E016E000E026E000E036EF2
:10091800000E046E21EF05F0960E0A6E9AEF04F0B1
:100928000A2AD8900E320D320C320B32000E0B14FC
:10093800056E000E0C14066E000E0D14076EFE0EEA
:100948000E14086E0550061007100810D8A4AFEF53
:1009580004F0B1EF04F094EF04F0BFEF04F00A2ABA
:10096800010E0B26000E0C220D220E22D8900E32FC
:100978000D320C320B32000E0B14056E000E0C14E7
:10098800066E000E0D14076EFF0E0E14086E05504D
:10099800061007100810D8A4D4EF04F0D6EF04F01E
:1009A800B3EF04F0DEEF04F00A06D8900B360C36ED
:1009B8000D360E360DBEE3EF04F0E5EF04F0EDEF73
:1009C80004F0020E0A60EBEF04F0EDEF04F0D8EF4C
:1009D80004F00AB0F2EF04F0F4EF04F0F5EF04F0DD
:1009E8000D9ED8900A320AC005F0066A076A086A9E
:1009F80005C008F0076A066A056A05500B1206501A
:100A08000C1207500D1208500E120950D8B40FEFEF
:100A180005F011EF05F019EF05F004BE18EF05F029
:100A280016EF05F019EF05F00E8E0BC001F00CC0A3
:100A380002F00DC003F00EC004F012004334443439
:100A48004A6E4A50D8A42BEF05F02DEF05F037EF8A
:100A580005F0000E416E000E426E000E436E000E51
:100A6800446EA4EF05F041C045F042C046F043C0D3
:100A780047F044C048F0200E47EF05F0D8904832C0
:100A8800473246324532E82E42EF05F04550496E6E
:100A9800438EFF0E4116FF0E4216FF0E4316000E40
:100AA8004416960E4A5E4ABE5EEF05F05CEF05F00E
:100AB80074EF05F04A50800A970FD8B066EF05F03A
:100AC80068EF05F06AEF05F02DEF05F0D890443295
:100AD8004332423241324A3E6AEF05F08CEF05F06C
:100AE8001F0E4A647AEF05F07CEF05F084EF05F0FD
:100AF8002DEF05F0D89041364236433644364A0643
:100B08004A50D8A48AEF05F08CEF05F07EEF05F087
:100B18004950D8B492EF05F094EF05F09CEF05F03A
:100B2800441E431E421E416C000E422243224422B0
:100B380041C041F042C042F043C043F044C044F0D9
:100B48001200F90ECB6EFC0ECA16CA849492BA50E3
:100B5800F00B0C09BA6E0E0EC16E9280F80EC0161C
:100B6800C050C70B0809C06EC09EC30EC216C28013
:100B78009E9C9D8C9F8CD09EF28CF28EC282C2EF7E
:100B880005F064EF00F04F904F920001A5EF05F0DB
:020000040020DA
:08000000FFFFFFFFFFFFFFFF00
:020000040030CA
:0E000000FF08191EFF8384FF03C003E00340C6
:00000001FF
