:020000040000FA
:04000000D0EF0FF03E
:101F900080F24860322404F0002010064E420C1CEF
:101FA000900EF66E1F0EF76E000EF86E00EE13F038
:101FB00010EE10F00900F5CFEEFFE550E150FAE128
:101FC0000001E3EF0FF020EE13F010EE03F00F0E20
:101FD000DBCFE3FFE806FCE2C168000E956E936874
:101FE00081500F0B016E026A030E0124D96E000EA0
:101FF0000220DA6EDF50836EF0EF0FF000EF00F09A
:020000040020DA
:08000000FFFFFFFFFFFFFFFF00
:020000040030CA
:0E000000FF08191EFF8384FF03C003E00340C6
:00000001FF
