:020000040000FA
:0400000058EF07F0BE
:05020000002564000070
:100206001EC036F01FC037F020C038F021C039F0CC
:1002160022C03AF023C03BF024C03CF025C03DF09C
:100226003DBE18EF01F01BEF01F0010E1CEF01F0CF
:10023600000E346E356A34503510D8B425EF01F00F
:1002460027EF01F037EF01F03D1E3C1E3B1E3A1E24
:10025600391E381E371E366C000E372238223922D8
:100266003A223B223C223D2276BE3CEF01F03EEF95
:1002760001F03FEF01F0779276BE4CEF01F0765039
:1002860006E17504D8B04AEF01F04CEF01F052EFE9
:1002960001F0000E316E010E306E56EF01F075C0A2
:1002A60030F076C031F073C032F074C033F03450A1
:1002B6003510D8A461EF01F063EF01F06AEF01F0A9
:1002C60077A468EF01F06AEF01F06DEF01F03206F6
:1002D600D8A03306000E3F6E1F0E3E6E000E0001C4
:1002E600EF6FF2EF01F03E06D8A03F06D00E3E2497
:1002F600D96E000E3F20DA6E36C001F037C002F02C
:1003060038C003F039C004F03AC005F03BC006F02F
:100316003CC007F03DC008F00A0E096E000E0A6EDA
:10032600000E0B6E000E0C6E000E0D6E000E0E6EA5
:10033600000E0F6E000E106E0FEC04F001C026F0DA
:1003460002C027F003C028F004C029F005C02AF037
:1003560006C02BF007C02CF008C02DF026C013F005
:1003660028C014F0DCEC06F01350300FDF6E3006B8
:10037600D8A031063206D8A0330636C001F037C001
:1003860002F038C003F039C004F03AC005F03BC0B3
:1003960006F03CC007F03DC008F00A0E096E000EDC
:1003A6000A6E000E0B6E000E0C6E000E0D6E000E29
:1003B6000E6E000E0F6E000E106E4BEC03F001C0B9
:1003C60036F002C037F003C038F004C039F005C07B
:1003D6003AF006C03BF007C03CF008C03DF03FBE17
:1003E600FDEF01F03F5008E13E04D8A0FDEF01F01B
:1003F600FFEF01F02FEF02F03650371038103910AA
:100406003A103B103C103D10D8A40CEF02F00EEF52
:1004160002F076EF01F031BE1BEF02F0315006E13B
:100426003004D8B019EF02F01BEF02F076EF01F0BE
:1004360033BE26EF02F0335008E13204D8A026EF8F
:1004460002F028EF02F02FEF02F077B22DEF02F064
:100456002FEF02F076EF01F034503510D8A436EFC6
:1004660002F038EF02F03FEF02F077A43DEF02F022
:100476003FEF02F05DEF02F03E06D8A03F06345093
:100486003510D8A449EF02F04BEF02F051EF02F01D
:10049600000E2F6E2B0E2E6E55EF02F0000E2F6EF5
:1004A6002D0E2E6ED00E3E24D96E000E3F20DA6E33
:1004B6002EC0DFFF1CC011F01DC012F0D00E3E246E
:1004C600136E000E3F20146E32C015F033C016F0C6
:1004D60091EC05F011C01CF012C01DF0120042C0D4
:1004E600D9FF43C0DAFFDECFF6FFDDCFF7FF080006
:1004F600F550250AD8A482EF02F084EF02F02FEF20
:1005060003F042C0D9FF43C0DAFFDE2A000EDD2227
:10051600000E746E000E736E73C077F074C078F0C0
:100526007568766842C0D9FF43C0DAFFDECFF6FFB2
:10053600DDCFF7FF0800F550640AD8B4A5EF02F046
:10054600A7EF02F0B9EF02F042C0D9FF43C0DAFFCD
:10055600DECFF6FFDDCFF7FF0800F550690AD8A415
:10056600B7EF02F0B9EF02F0F9EF02F042C0D9FF9F
:1005760043C0DAFFDE2A000EDD2244C0D9FF45C0A3
:10058600DAFFDFCF46F0020EDE26DFCF47F0000EA1
:10059600DD2246C0D9FF47C0DAFFDECF48F0DDCF07
:1005A60049F0000E49BEFF0E4A6E4B6E4C6E4D6E04
:1005B6004E6E4F6E40C01CF041C01DF048C01EF08C
:1005C60049C01FF04AC020F04BC021F04CC022F0B9
:1005D6004DC023F04EC024F04FC025F003EC01F0CF
:1005E6001CC040F01DC041F04AEF03F042C0D9FFE5
:1005F60043C0DAFFDECFF6FFDDCFF7FF0800F55088
:10060600250AD8A409EF03F00BEF03F022EF03F05D
:1006160042C0D9FF43C0DAFFDE2A000EDD22000EFB
:10062600026E250E016E40C003F041C004F02CECB2
:1006360005F0000E416E010E406E4AEF03F042C017
:10064600D9FF43C0DAFFDE2A000EDD22000E416E1E
:10065600000E406E4AEF03F042C0D9FF43C0DAFFF6
:10066600DECFF6FFDDCFF7FF0800F550016E026A18
:1006760040C003F041C004F02CEC05F042C0D9FFA5
:1006860043C0DAFFDE2A000EDD221CEF03F0120063
:10069600000E126E10BE54EF03F052EF03F066EF39
:1006A60003F0101E0F1E0E1E0D1E0C1E0B1E0A1E24
:1006B600096C000E0A220B220C220D220E220F229A
:1006C6001022010E126E08BE6DEF03F06BEF03F001
:1006D6007FEF03F0081E071E061E051E041E031EDE
:1006E600021E016C000E02220322042205220622AB
:1006F60007220822010E121A20EE13F0070EDE6AF8
:10070600E806FDE209500A100B100C100D100E1031
:100716000F101010D8B492EF03F094EF03F0E6EF49
:1007260003F0010E116EA2EF03F0D89009360A36D7
:100736000B360C360D360E360F361036112A10AE25
:10074600A7EF03F0A9EF03F098EF03F0D890133664
:100756001436153616361736183619361A3609501F
:10076600015C0A5002580B5003580C5004580D50A7
:1007760005580E5006580F50075810500858D8A064
:10078600C7EF03F0C9EF03F0DAEF03F00950015E9B
:100796000A50025A0B50035A0C50045A0D50055A6F
:1007A6000E50065A0F50075A1050085A1380D89008
:1007B60010320F320E320D320C320B320A3209323F
:1007C600112EA9EF03F01250D8B4ECEF03F0EEEFC0
:1007D60003F0FEEF03F01A1E191E181E171E161E32
:1007E600151E141E136C000E142215221622172233
:1007F600182219221A2213C001F014C002F015C0E3
:1008060003F016C004F017C005F018C006F019C0B2
:1008160007F01AC008F01200000E126E08BE18EF9C
:1008260004F016EF04F02AEF04F0081E071E061E59
:10083600051E041E031E021E016C000E0222032268
:1008460004220522062207220822010E126E10BE7D
:1008560031EF04F02FEF04F041EF04F0101E0F1EED
:100866000E1E0D1E0C1E0B1E0A1E096C000E0A2201
:100876000B220C220D220E220F22102209500A10E2
:100886000B100C100D100E100F101010D8B44EEFE8
:1008960004F050EF04F098EF04F0010E116E5EEFD5
:1008A60004F0D89009360A360B360C360D360E365D
:1008B6000F361036112A10AE63EF04F065EF04F020
:1008C60054EF04F00950015C0A5002580B500358CB
:1008D6000C5004580D5005580E5006580F50075826
:1008E60010500858D8A07AEF04F07CEF04F08CEF93
:1008F60004F00950015E0A50025A0B50035A0C507C
:10090600045A0D50055A0E50065A0F50075A1050E9
:10091600085AD89010320F320E320D320C320B328A
:100926000A320932112E65EF04F01250D8B49EEF48
:1009360004F0A0EF04F0B0EF04F0081E071E061E38
:10094600051E041E031E021E016C000E0222032257
:100956000422052206220722082201C001F002C055
:1009660002F003C003F004C004F005C005F006C0A1
:1009760006F007C007F008C008F012000F0EC16E9F
:10098600000E926E000E956E800E016E0F0E026EB8
:10099600830E036E0F0E046E7FEC07F0020E056EDB
:1009A600000E066E100EF2EC05F090EC07F0A6ECC9
:1009B60007F0000E6C6E000E6B6E82A0E5EF04F081
:1009C600E7EF04F0F9EF04F090EC07F06B4A6C2ABD
:1009D6006BC068F06CC069F02FEC07F0110E6A6E00
:1009E6003A0EE82EFED76A2EFCD700D082A2FEEF82
:1009F60004F000EF05F013EF05F090EC07F06B063E
:100A0600D8A06C066BC068F06CC069F02FEC07F0DC
:100A1600110E6A6E3A0EE82EFED76A2EFCD700D06B
:100A260082A418EF05F01AEF05F026EF05F090EC1A
:100A360007F0000E6C6E000E6B6E000E696E000EF7
:100A4600686E2FEC07F088EC07F0E0EF04F000EF9B
:100A560000F003500410D8B433EF05F035EF05F07D
:100A66003EEF05F003500410D8A43CEF05F03EEF2E
:100A760005F043EF05F00150B7EC07F090EF05F0F5
:100A860020EE04F00350D9260450DA22DE50DE10A0
:100A9600D8B450EF05F052EF05F06DEF05F020EEFB
:100AA60004F00350D9260450DA2210EE02F0035067
:100AB600E1260450E222DE50E65CE650800A096E2A
:100AC600DE50800A0958D8B06BEF05F06DEF05F0DF
:100AD60090EF05F020EE02F00350D9260450DA22FA
:100AE600DECF05F0DDCF06F003C0D9FF04C0DAFF84
:100AF600DECF07F0DDCF08F005500724D96E06508B
:100B06000820DA6E01C0DFFF20EE02F00350D9267E
:100B16000450DA22DE2A000EDD22120077A096EFBC
:100B260005F098EF05F0A2EF05F013C00AF014C027
:100B36000BF011C00CF012C00DF0BAEC06F016BEA8
:100B4600A7EF05F0A9EF05F0AFEF05F015C01AF015
:100B560016C01BF0B3EF05F0000E1B6E000E1A6EEA
:100B6600000E196E000E186EC5EF05F0000E026E2F
:100B7600200E016E11C003F012C004F02CEC05F03B
:100B8600184A192A1A50185C1950800A176E1B50F9
:100B9600800A1758D8A0D2EF05F0D4EF05F0B9EFC8
:100BA60005F077B0D9EF05F0DBEF05F0E5EF05F0DE
:100BB60013C00AF014C00BF011C00CF012C00DF0F7
:100BC600BAEC06F013C001F014C002F0FCEC06F01B
:100BD6001A500124116E1B500220126E1200086E6C
:100BE600100E7E6E010E0564FBEF05F0FDEF05F0BD
:100BF600FEEF05F07E8605C079F0400E016E08C056
:100C060002F00850400F036E000E6BEC07F0065022
:100C1600D8B410EF06F012EF06F013EF06F07E845C
:100C26000E0E076E4E0EE82EFED7072EFCD700D00E
:100C36007E5020099FEC07F0FA0E00D0E82EFDD773
:100C46007E5020099FEC07F00A0EE82EFED77E5054
:100C560020099FEC07F07E5020099FEC07F0040E58
:100C66007B6EACEC07F090EC07F0020E7A6E7A50D1
:100C760004099FEC07F0120052C056F053C057F01B
:100C8600000E726E000E716E5BEF06F050C040F003
:100C960051C041F0560E426E000E436E54C044F0F1
:100CA60055C045F072EC02F0405071264150722258
:100CB60056C0F6FF57C0F7FF0800F5500009D8A444
:100CC60067EF06F069EF06F049EF06F071C050F0E5
:100CD60072C051F012005C0E606E000E616E58C05C
:100CE60062F059C063F0000E656E000E646E000E71
:100CF600676E000E666E620E506E000E516E5AC022
:100D060052F05BC053F0600E546E000E556E3FEC11
:100D160006F064505824D96E65505920DA6E000EDC
:100D2600DF6E1200036E0250D8B49CEF06F09EEF01
:100D360006F0A5EF06F07CC0D9FF7DC0DAFFDF80A4
:100D4600AAEF06F07CC0D9FF7DC0DAFFDF907CC039
:100D5600D9FF7DC0DAFFDF927EA8B4EF06F0B6EFCA
:100D660006F0B9EF06F0035075EC07F01200000E1E
:100D7600106E000E0F6ECBEF06F00EC001F0026A89
:100D86000CC003F00DC004F02CEC05F00F4A102A3D
:100D96000F500A24D96E10500B20DA6EDF500E6EFB
:100DA6000E50D8A4D9EF06F0DBEF06F0C0EF06F040
:100DB600120014BEE9EF06F0145006E11304D8B091
:100DC600E7EF06F0E9EF06F0F7EF06F013C015F0CF
:100DD60014C016F0151E161E154A162A15C013F055
:100DE60016C014F0FBEF06F013C013F014C014F095
:100DF600120001C003F002C004F004EF07F0014A3C
:100E0600022A01C0D9FF02C0DAFFDF50D8A40EEFD4
:100E160007F010EF07F002EF07F00350015C016ED8
:100E260004500258026E120022EF07F006C0D9FFE6
:100E360007C0DAFFDF50B2EC07F0064A072A06C001
:100E4600D9FF07C0DAFFDF50D8A42CEF07F02EEF4A
:100E560007F019EF07F01200800E586E000E596E5B
:100E6600010E5A6E020E5B6E68C05CF069C05DF0E2
:100E76006EEC06F0800E066E000E076E17EC07F09D
:100E860012007CC0D9FF7DC0DAFFDF947CC0D9FF99
:100E96007DC0DAFFDF847CC0D9FF7DC0DAFFDF9436
:100EA600080EE82EFED700F0120000EED0F0200E5D
:100EB600EE6AE806FDE100EE6DF00F0EEE6AE8065A
:100EC600FDE1000EF86E020EF76E0001C1EF04F0B0
:100ED600046E04C06DF001C06EF002C06FF003C076
:100EE60070F01200016EF0C0D9FFF1C0DAFF01C048
:100EF600DFFF44EC07F0120001C0F0F002C0F1F091
:100F060003C07CF004C07DF01200020E9FEC07F0D7
:100F1600A60EE82EFED700D01200010E9FEC07F0B9
:100F2600A60EE82EFED700D01200046E010E026E49
:100F3600045095EC06F01200046E000E026E04508A
:100F460095EC06F012007A907A5004099FEC07F0AF
:100F560012007B847B5008099FEC07F01200056E97
:0A0F6600055098EC07F0120012008D
:020000040020DA
:08000000FFFFFFFFFFFFFFFF00
:020000040030CA
:0E000000FF08191EFF8380FF03C003E00340CA
:00000001FF
