:020000040000FA
:0400000028EF00F0F5
:100008000282F0A00AEF00F00CEF00F025EF00F0FC
:1000180083B211EF00F014EF00F0010E15EF00F0BD
:10002800000EFF0A016E014683500118FD0B0118EE
:10003800836EA30E016E550EE82EFED7012EFCD757
:1000480000F0F0900292110034EF00F0C168000E49
:10005800956E9368F28EF086F090F19A28EF00F092
:0A0068000290029200012AEF00F05E
:020000040020DA
:08000000FFFFFFFFFFFFFFFF00
:020000040030CA
:0E000000FF08191EFF8384FF03C003E00340C6
:00000001FF
